:020000040810E2
:10000000B81000308D081008C523100879081008B2
:100010007908100879081008790810080000000015
:10002000000000000000000000000000410910086E
:100030007908100800000000ED0810086D12100883
:10004000990A1008990A1008990A1008990A1008C4
:10005000990A1008990A1008990A1008990A1008B4
:10006000990A1008990A1008990A1008990A1008A4
:10007000990A1008990A1008990A1008990A100894
:10029800014B1B68184700BF0000003030B585B01F
:1002A80004460D4610220021684602F08FFA022308
:1002B8008DF802302A46044B01932146684601F026
:1002C8009DFD05B030BD00BF9902100880B50546F8
:1002D8000E461746984601F041FB034602F0E2FA43
:1002E800DFF81890044649F800304246304639464F
:1002F800A84754F8090000F0DFFA00BF0800000022
:10030800054B5A6822F002025A605A6822F001022C
:100318005A600020704700BF0010005C1A4B1B4950
:10032800D3F8D82042F48042C3F8D820D3F8D82094
:1003380082B002F480420192019AD1F8002422F49A
:100348007F2222F4706242F40142C1F80024D1F8FD
:10035800002442F00102C1F80024D3F8E02042F062
:100368000072C3F8E020D3F8E02002F00072009297
:10037800009AD3F8A0301B0703D4054A1369002B51
:10038800FCDA02B0704700BF004402580040024047
:100398000064025808B50348034A0021121A02F003
:1003A80005F808BD50000030740300300748084ABB
:1003B800084908B5121A01F0FBFF0748074A08491F
:1003C800BDE80840121A01F0F3BF00BF000000307A
:1003D80050000030F43510080000003000000030F4
:1003E800F435100838B505460C4699B1D1E9012312
:1003F8000F48096801F0CCFFD4E90423E1680D48EF
:1004080001F0C6FFE1690C4801F0C2FFA1690B4881
:1004180001F0BEFF012D05D1EFF305810848103921
:1004280001F0B6FF21462846BDE8384000F0E4BF99
:10043800C4301008F4301008243110083431100882
:100448006331100830BFFFF7FDBF00BF2DE9F04151
:100458000B4EDFF8308006EB0807CC1B054632460A
:100468000949204602F0A4F9A01942460021083C97
:1004780002F0ACF96C6607F10800BDE8F08100BF36
:100488000000000004000000D02F1008054B5A6936
:100498009B689A421FBF044A536843F080535360D5
:1004A800704700BF4403003000ED00E010B51D4C5C
:1004B8001D4801F06DFFA36A990130D51B4801F072
:1004C80067FF1E20A36ADA0103D5194801F060FF0F
:1004D8001F20144CA36A1B0303D5164801F058FFCC
:1004E8002120A36A590303D5134801F051FF2220A4
:1004F8000C4CA36A9A0303D5104801F049FF232046
:10050800A36ADB0303D50E4801F042FF2420054A05
:10051800936A6FEA03436FEA1343936210BD1D2089
:10052800D0E700BF00ED00E07731100890311008E7
:10053800A4311008BF311008DE3110080432100849
:100548001F32100870B5244C064624480D4601F0A9
:100558001FFFA36AD90435D5214801F019FF1720D8
:10056800A36A1A0503D51F4801F012FF18201A4C78
:10057800A36A9B050FD51C4801F00AFFA16BA36A6B
:10058800180407D5194801F003FF1EB1A36A23F424
:100598000043A3621920104CA36A590503D51448D7
:1005A80001F0F6FE1A20A36ADA050DD5114801F00C
:1005B800EFFE1B20084A936A43F47F4393620023AB
:1005C8002B7070BD1620CBE7A36A9B04F2D50A48AE
:1005D80001F0DEFE1C20EDE700ED00E04B321008D4
:1005E800623210087432100888321008A2321008DB
:1005F800B8321008D4321008ED32100870B5264C05
:10060800064626480D4601F0C3FEA36AD80640D523
:10061800234801F0BDFE1120A36A190703D521481C
:1006280001F0B6FE12201C4CA36A9A070FD51E488B
:1006380001F0AEFE616BA36A1B0607D51B4801F0EB
:10064800A7FE1EB1A36A23F08003A3621320124CF5
:10065800A36ADE0703D5164801F09AFE1420A36AA0
:100668009C0603D5134801F093FE15200A4B9A6A9D
:10067800D10658BF9A6A9A6A920642BF5A6A22F409
:1006880000525A629A6A42F0FF029A6200232B7063
:1006980070BD1020C0E700BF00ED00E01D3310085A
:1006A8003433100874321008683310088133100886
:1006B80098331008ED3210082DE9F0415B4B5F6864
:1006C8008AB00446C7F30806002585F31188BFF3EE
:1006D8006F8F02F07F43B3F17F4F06D102F00C0316
:1006E800082B13D1524801F053FE00252C464FF039
:1006F8000008F31E8DF80780092B00F28580DFE8DB
:1007080003F00A797D7583838383838110074CBF47
:100718000C460125EBE74748444E01F039FE8DF8B9
:100728000780F36A9A0704D5434801F031FE002395
:100738002FE0F36A002B01DA4048F6E7F36A5B0022
:10074800F5D53F4801F024FE7369A26943F480732C
:100758007361BFF34F8FBFF36F8F736932F8022C49
:1007680023F480737361BFF34F8FBFF36F8F4DF620
:1007780002739A4208D0B36ADBB24BB30DF107019A
:100788000120FFF73BFF33E021682E4801F000FE0F
:1007980023689DF80720C2B902AE04F1200720683B
:1007A8006168324603C20834BC421646F7D1099A3A
:1007B800B5B3C2F3080121B96FEA52226FEA4222A7
:1007C800099202A91846FFF70DFE0AB0BDE8F081AC
:1007D800B36A13F47F4F05D00DF107010120FFF72D
:1007E800B1FE05E0B36AB3F5803FA0D3FFF75EFE24
:1007F8000346CEE70DF107010020C2E70DF107011E
:100808000020ECE7104890E7104B1149114817F405
:10081800F87FA6F1100218BF194601F0B9FD86E766
:1008280022F4FF7222F00102CAE700BF00ED00E0E7
:10083800E6331008123410082A3410084C34100813
:100848005B3410087B34100898341008CD33100836
:10085800B8331008BD341008044B5A6942F010022E
:100868005A615A6922F008025A61704700ED00E0A7
:10087800EFF30880EFF3098101B57246FFF71CFF1B
:1008880001BD00BF0A4880F30888102080F3118852
:1008980008484FF40061401880F30988EFF314808A
:1008A8000221084380F31488BFF36F8F00F08AF8A1
:1008B800B810003078030030084B9B6883420BD196
:1008C800EFF3058343B1064B5A6842F080525A60F1
:1008D8005A6A22F400425A6201F046B844030030D2
:1008E80000ED00E011498A684FF030001044EFF342
:1008F800098C80E8F01F102080F31288BFF36F8FF7
:100908000B4F4FF000664A698A603E60506E094C92
:100918002060906E0023936680F3118802F1300006
:1009280090E8F01F8CF309887047000044030030FA
:1009380004ED00E0D00100301EF0040F0CBFEFF30F
:100948000880EFF30980816911F8021C0229FFD0A1
:1009580001B5724601F02EFD01BD00BF00B20028AE
:1009680007DB044A4109012300F01F00834042F8D5
:100978002130704700E100E000B20028A8BF00F174
:10098800604001F10101B8BF064B4FEA0111ACBF4D
:1009980000F5614000F00F00C9B2B4BF195480F8E7
:1009A8000013704714ED00E0044B054A23F07F0361
:1009B8009360BFF34F8FBFF36F8F7047000010082D
:1009C80000ED00E008B5FFF7EFFF0B4AD2F88830DA
:1009D80023F47003C2F88830EFF3148323F0040380
:1009E80083F31488BFF36F8FFFF7D4FCFFF7DEFCA7
:1009F80000F042F800F0D2FD00ED00E042F8203CA3
:100A0800009B42F81C3C0A49019B42F8183C029B97
:100A180042F8143C21F001014FF0807342F8043C85
:100A280042F8081C0023203A02658366704700BF1D
:100A3800D502100800B50B4B98600B4B1546426E5B
:100A48001A600E462C4686F309880020034B984707
:100A58002046002100220023014C2047E1231008F2
:100A6800D502100844030030D0010030014B102299
:100A78001A61704700ED00E0044800231021C218F5
:100A88000133962B82F80013F9D1704700E100E09A
:100A980008B5EFF30583064A103B02EBC30152F891
:100AA800330049688847BDE80840FFF7EFBC00BF3E
:100AB800E02A100808B50649064821F00701C1F1E7
:100AC800405202F5003201F024FC002008BD00BFAE
:100AD800BF100030D4010030044B03EB400000236A
:100AE8000133994220F8022BFADC704714000030D9
:100AF8002DE9F041104F054600264FF001086B78AC
:100B0800F4B2A34201D8BDE8F0812B781C442046FA
:100B180000F024F968B1204600F044F957F8343061
:100B28003BB107EBC40204F01F04516808FA04F053
:100B380098470136E3E700BFE001003010B50A4AE4
:100B48000A494FF48013D2F8A40088420BD0581CED
:100B5800F9D0013BF7D183F31188BFF36F8F0424D9
:100B6800204602DFEFE710BD006402580001008054
:100B7800034680B1B0FA80F2C2F11F02D2B207492F
:100B880031F912004FF0B042D2F8C0100B43C2F84E
:100B9800C030FFF7E3BEFF22F1E700BF14000030CA
:100BA80038B50D460446FFF7C9FF032D0DD8DFE819
:100BB80005F0021116204FF0B0431A6822EA040229
:100BC8001A605A6822EA04025A600E4B4FF4807287
:100BD8005A6238BD4FF0B0431A682243F0E74FF02D
:100BE800B0435A6822435A601A6822EA04021A601B
:100BF800EBE74FF0B0431A6822431A605A6814436F
:100C08005C60E2E70064025830B5B0B1B0FA80F336
:100C1800C3F11F03DBB20B4850F833408C4204D1B8
:100C280000EBC3056D68954205D044B940F8331010
:100C380000EBC3004260002030BDFF23EBE76FF0FC
:100C48000F00F9E7E001003060B1B0FA80F3C3F1BA
:100C58001F03DBB2044A002142F8331002EBC3023F
:100C680051607047FF23F5E7E001003038B500F028
:100C7800030304339B000F259D4045EA90050C466D
:100C8800FFF75CFF05F003039B0003F1B0432A0C58
:100C9800D3F8081492FAA2F2B2FA82F202F01F0212
:100CA800944021EA15410C43C3F80844024B4FF421
:100CB80080725A6238BD00BF0064025800F0030217
:100CC800043292000F23934043EA900000F003039C
:100CD8000233074A52F82320030C93FAA3F3B3FA1A
:100CE80083F302EA104003F01F03D840704700BFA7
:100CF8000004005810B50A4A0A494FF48013D2F884
:100D0800A40088420BD0581CF9D0013BF7D183F3DB
:100D18001188BFF36F8F0424204602DFEFE710BD70
:100D2800006402580001008013B50B4C204601F006
:100D38009DFC58B10223F422CDE90023A3681B6867
:100D48003BB169462046984702B010BD6FF01200CB
:100D5800FAE76FF05700F7E7402910085F2838B521
:100D680005461BD800F01F0301249C40FFF7C2FF73
:100D78001F2D4FF0B0430AD8D3F8C8309C43084B16
:100D88004FF480720CBF012000205A6238BD3F2DFD
:100D980094BFD3F8D830D3F8E830EFE70020F5E770
:100DA8000064025838B55F2800F01F034FF00105B2
:100DB800044605FA03F514D8FFF79CFF1F2C4FF0E3
:100DC800B04307D8C3F8C850074B4FF480725A6233
:100DD800002038BD3F2C94BFC3F8D850C3F8E85062
:100DE800F2E76FF01500F4E70064025810B51D4BE8
:100DF80018680B88C3F30B03F42B06D8D72B07D836
:100E0800022B26D019D8012B21D06FF0850013E0D2
:100E180003F628730124C3F30B0304FA03F3124CFB
:100E2800234212D140F211142342EED010600B6815
:100E3800B3F5805F0FD2002010BD132B02D8112B01
:100E4800E3D9F3E7D42BF1D0DFE74008EEE7074B0F
:100E58001B690020EAE7C3F313330133B0FBF3F057
:100E68001060E8E704000030001011110044025837
:100E780010B50A4A0A494FF48013D2F88C00884208
:100E88000BD0581CF9D0013BF7D183F31188BFF37D
:100E98006F8F0424204602DFEFE710BD006402587C
:100EA8000001008010B50B8803F62C73C3F30B0305
:100EB800202B0C4610D8FFF7DBFF23880849606811
:100EC800C3F30B035A5822EA00025A50054B4FF459
:100ED8008072DA60002010BD6FF08500FBE700BF6C
:100EE800604402580064025813B50B8803F62C734B
:100EF800C3F30B03202B0C4616D8FFF7B9FF238842
:100F08000B4A6068C3F30B0399580143995023882F
:100F1800C3F30B0300209B580193019B054B4FF42F
:100F28008072DA6002B010BD6FF08500FAE700BF8A
:100F38006044025800640258044A136923F40043C9
:100F48001361034B034A1A6000207047004402589B
:100F580004000030001C4E0E10B50888C0F30B00CA
:100F680001F0A5FA00280C4626DB4B68FF2B22D09F
:100F7800FFF77EFF626893B203F1B04303F51133C4
:100F8800C2F384501968C2F3054200FA02F221EA5A
:100F980002021A6061688BB203F1B04303F51133A2
:100FA800CA0E1868C1F305418A4002431A60034B10
:100FB8004FF48072DA60002010BD00BF0064025850
:100FC8002DE9F843D0F80480D0F81090D8F808003C
:100FD80017460D461E4601F05CFAB7F5001F044699
:100FE80016D12846D8F80840FFF768FE84420CD18D
:100FF800294601F04EFA044601F050FA2046FFF760
:1010080023FE00212046FFF7CBFD0020BDE8F88332
:10101800B7F5800F20D0B6F1806F19D0B6F1C06F48
:1010280018D0B6F1007F1AD1022610494A46204648
:10103800FFF7EAFDB0B9D8F808102846FFF716FE02
:1010480020463146FFF7ACFD2046FFF791FDDCE76F
:101058000126EAE70326E8E76FF08500D6E76FF098
:101068001500D3E76FF00F00D0E700BF192610086E
:1010780010B50A4A0A494FF48013D2F8A0008842F2
:101088000BD0581CF9D0013BF7D183F31188BFF37B
:101098006F8F0424204602DFEFE710BD006402587A
:1010A8000001008038B543685D680C46FFF7E0FF33
:1010B8006B6963406B61034B4FF480721A620020C6
:1010C80038BD00BF0064025870B543685E680D46BD
:1010D8001446FFF7CDFF73695C402C405C40034B1E
:1010E80074614FF480721A62002070BD0064025867
:1010F8002DE9F84345680124164688468C4002F0DD
:1011080030079946FFF7B4FF6A68C6F3801322EAEE
:10111800040203FA08F313436B60D5F808C004FA15
:1011280008F202EB4200C6F3C11151432CEA000C4D
:1011380041EA0C01A960E968C6F34126564321EA51
:1011480000010E43202F6FEA0003EE600FD1B8F1C3
:10115800070F18D802FA08F1286A01FA08F1C1EB5A
:10116800011420EA040001FB09F1014329622968FE
:101178003F0957430B401F430A4B2F604FF48072BF
:101188001A62BDE8F883240A6443696A6443C4EBBD
:10119800041021EA000104FB09F941EA0901696226
:1011A800E5E700BF0064025838B503690446586093
:1011B8000A4D284601F05AFA60B1AB6861681B68AD
:1011C8000C3123B12846984700EAE07038BD6FF02B
:1011D8005700F9E76FF01200F8E700BF4029100840
:1011E80010B54FF0E0230F499C691A6908689B699C
:1011F8000D4902F4803234B993B903464AB90A68F2
:101208001044C01A10BD002B08BF03460AB9A342F8
:10121800F5D90A6802440A604FF0E0221269EEE745
:101228000446F3E7400300303C0300300A4B102229
:1012380083F82320094B45F6C0521A60084B00205A
:1012480018604FF0E02345F6BF525A6198611A6959
:1012580042F007021A61704700ED00E040030030D9
:101268003C030030684620F007018D4619B5FFF7AA
:10127800B7FF114B1149D3E900420868001942F140
:101288000002C3E900020E4A00230B60D2E90041C4
:1012980045F6C053001BB0FBF3F043431B1941F163
:1012A8000001C2E9003100F043FDFFF7EFF8BDE8A7
:1012B80019408546704700BF580000303C03003095
:1012C800500000302DE9F041DFF8DC8099B1421C74
:1012D8000BD14FF0E022136923F0010313614FF0A3
:1012E8007F43C8F80030BDE8F081D8F800600128D5
:1012F80007DC00270BE0431CD8F80060F7D140F268
:10130800BA2040F2BB239842A8BF1846471EEFF305
:101318001185102383F31288BFF36F8FFFF760FFE7
:10132800224C4FF0E0239969D4E90023801843F157
:101338000003C4E900031E4B00221A601D4B1A6803
:10134800831A2ED445F6C05C0CFB073303F5BB4368
:101358003F33B3FBFCF7131A0CFB073340F2DC52A4
:10136800934238BF1346144A934228BF13464FF09E
:10137800E022C8F80030013B906953610023936173
:101388008142A1EB0003D4E9001238BF9B195B1816
:1013980042F10002C4E9003285F31188BFF36F8F70
:1013A800A1E740F2DC53E2E7400300305800003088
:1013B8003C03003050000030809DFF0038B5EFF34B
:1013C8001185102383F31288BFF36F8F084B1C68B5
:1013D800084B1B68E41AFFF703FF85F31188BFF376
:1013E8006F8F45F6C0532044B0FBF3F038BD00BF03
:1013F800580000305000003038B5EFF31185102345
:1014080083F31288BFF36F8F064B9C6801F041F994
:1014180085F31188BFF36F8F2046BDE83840FFF78A
:101428004BBA00BF4403003038B50A4B53F820408C
:10143800013053F82050A54200D838BD606830B15B
:10144800037FDB0701D401F0F9F80834F3E72368D8
:101458009847FAE7AC30100870B52F4B2F4C304D39
:10146800012286B003201A70FFF7DEFF00F0C0FCEF
:10147800AC421AD10420FFF7D7FF2A4C2A4D264642
:10148800AE4204F1300416D300F0F4F9254C274E8F
:10149800AC422CD300F002FA00F00DFF244A137B73
:1014A80023F00103137306B070BD54F8043B002BFE
:1014B800E0D09847DCE754F80C3C059354F8103C0E
:1014C800049354F8143C039354F8183C029354F8CA
:1014D8001C3C019354F8203C009354E90A2354E936
:1014E8000C0100F0BDF854F8303C5E65C7E7D4E95C
:1014F8000A23B3F1FF3F08BFB2F1FF3F05D052EA1C
:101508000301206803D100F005FA3034C0E7314602
:10151800183000F07DFBF8E770030030D02F10087A
:10152800D02F1008902F1008902F1008332710087C
:10153800D000003070B5144E144D1549702386B094
:1015480003FB006601220023CDE904230F22CDE925
:1015580002320193142303FB00554FF4A072044692
:1015680002FB00110B4B0095304600F079F8737BB5
:101578002C7423F004037373074BEE60013403EB00
:10158800C4236B6006B070BD6000003044030030B7
:10159800780B0030A126100878030030BFB5002072
:1015A800FFF742FF264B83F30888264C264F6369D2
:1015B80043F4007363610025F02384F82230E57753
:1015C80025766576A57684F82050636A43F4E0238F
:1015D8006362FFF741F9FFF749FA4FF0FF33A3625F
:1015E8001A48E36200F074F8FEF798FE0120FFF74E
:1015F8001BFF0220FFF718FF00F084F9144B154C6D
:101608005C61154B0593012314490095CDE90353FB
:101618004FF480623B46CDE90155204600F020F8A2
:10162800627B064622F004022046627301F051F8FC
:101638002846FFF77FFF3A4631462046FFF7FAF97A
:10164800780B003000ED00E0611410084001003014
:1016580044030030D0000030A4351008B80C003026
:101668002DE9FF41984600F15803D51DC0E916330E
:101678000E9B037325F007050423002643730D44CE
:101688000D9B83730F46C0E9066629468660C673BC
:101698000446FEF7DBFE0C9B029307300B9B01937D
:1016A80020F007000A9B00932D1A43462A46394624
:1016B8002046FFF7A3F9054B66659B6803B11B6ECF
:1016C8002366284604B0BDE8F08100BF440300301B
:1016D80040F20113838100230366014B9860704731
:1016E80044030030094A93686FF00A01D966084933
:1016F80098664B6843F080534B60002383F311884E
:10170800BFF36F8F9368D86E704700BF44030030F3
:1017180000ED00E070B590F90D20437B002A36DB20
:10172800D90634D11B4C63F07F032246437352F829
:10173800183FE169934207D1C0E900210860E061E0
:1017480011E09942F8D01B68002BF5D090F90E50A3
:1017580093F90E60B542F4D0AE42F2DD5968C0E9A3
:10176800003108605860A569954200D005B9E56860
:10177800A3685A7BD20604D1DA897F2A01D9AA69DB
:1017880032B1AB4202D0284600F0BCF9656170BDA9
:101798006361FCE74403003070B590F90D20437B8A
:1017A800002A014604DA03F07F03437300F07FFF49
:1017B8004B7B1C4C63F07F0322464B7352F8183F57
:1017C800E069934207D1C1E900200160E16111E0BD
:1017D8009842F8D01B68002BF5D091F90E5093F978
:1017E8000E60B542F4D0AE42F2DD5868C1E900306F
:1017F80001605960A569A368954200D005B9E568FC
:101808008B4207D05A7BD20604D1DA897F2A01D9C4
:10181800AA692AB1AB4202D0284600F073F92B46D8
:10182800636170BD4403003049B9EFF3058030B9F6
:10183800054B5A699B689A4201D0FFF753BF81F361
:101848001188BFF36F8F704744030030034648B9CF
:10185800EFF3058232B9064A51699268914201D084
:10186800FFF740BF83F31188BFF36F8F704700BF46
:1018780044030030EFF31181102383F31288BFF380
:101888006F8F054B9A68D37B013BD37381F3118823
:10189800BFF36F8F704700BF4403003070B5EFF39C
:1018A8001186102383F31288BFF36F8F144DAB6832
:1018B800DA7B0132DA732A4652F8184F944200D084
:1018C80004B9EC685A7BD20604D1DA897F2A01D997
:1018D800A2692AB1A34202D0204600F013F9234698
:1018E8006B6186F31188BFF36F8FEFF311801023BC
:1018F80083F31288BFF36F8FBDE87040FFF7A6BF70
:1019080044030030024B03F11802C3E90622704772
:101918004403003038B50446EFF31185102383F3F0
:101928001288BFF36F8F437B5B070FD5183000F029
:1019380017FF637B23F0040320466373FFF7EAFE77
:1019480029460548BDE83840FFF76EBF85F3118882
:10195800BFF36F8F38BD00BF71030030014B98682B
:10196800704700BF440300302DE9F8430446077B65
:10197800EFF31185102383F31288BFF36F8F437B36
:10198800190705D585F31188BFF36F8FBDE8F88374
:10199800D90943F008025DD14273A36813B1204608
:1019A80000F08DFE04F1180000F0DAFEA66D04F1D7
:1019B8005808B04511D04FF0000976B1304600F014
:1019C8007EFE06F1180000F0CBFEC6F86C9030469B
:1019D800FFF7A0FEA66DB045EFD1DFF8C080D8F8BC
:1019E80008309C423ED1EFF30589B9F1000918BFD0
:1019F8004FF00109D8F81860294A964200D00EB96C
:101A0800D8F80C60B34202D0304600F07BF820468C
:101A1800C8F8146000F0DDFCB9F1000F02D02148CD
:101A2800FFF756FED8F808309C4231D1EFF3058312
:101A380073BB227BD20718D42846FFF753FEFB0757
:101A4800A4D5002383F31188BFF36F8F04231846AE
:101A580002DF9BE703F07F0343F00803437300F0C2
:101A680026FE9AE74FF00009C4E785F31188BFF313
:101A78006F8F83F31188BFF36F8F0423184602DF3B
:101A8800EFF31180102383F31288BFF36F8FD4E72D
:101A980085F31188BFF36F8FD1E700BF440300308F
:101AA8005C03003040010030044BC01A044BC010E6
:101AB8005843044B01221A54704700BFB00100304C
:101AC800ABAAAAAA72030030C3897F2B12D80A4B8B
:101AD8001B6863B1094B90F90E201B689A4209DB19
:101AE800437BDB0606D1064BC31A18BF012303F05C
:101AF800010070470023FAE708000030680300304F
:101B08006000003070B50E4B0E4C1E7C06EB460391
:101B180004EBC3040546204600F022FE0A4B0022CF
:101B280028469A55FFF7D0FF48B1084B08491A686C
:101B3800013A2046D317BDE8704000F069B870BD7F
:101B480044030030B0010030720300300800003058
:101B5800B11A100838B5EFF31185102383F31288F2
:101B6800BFF36F8F104B114A9C681068A04206D1D2
:101B7800FFF7C8FF85F31188BFF36F8F38BD0021C9
:101B88001B7C11600A4AD35C002BF3D02046FFF778
:101B98009BFF0028EED0637BDB0602D12046FFF7CF
:101BA800FBFD2046E4E700BF440300306403003037
:101BB80072030030024B1868984208BF0020704733
:101BC8000C000030034B1B680BB9FFF7F7BB002074
:101BD800704700BF6C03003030B570B10B4B5B68C9
:101BE80098420AD0036843B1D3E90421D0E90445F7
:101BF800121941EB0501C3E90421D0E90032136051
:101C08005A600023C0E9003330BD00BF0C0000302B
:101C1800B3F1FF3F08BFB2F1FF3F2DE9F84F04468B
:101C2800994615461F467AD08160EFF31188102334
:101C380083F31288BFF36F8FB9F1000FDFF8E4A0C8
:101C480020DBFFF7BFFFDAE90027013549F100097A
:101C58002D1849EBE073C4E90453AD18064643EB6D
:101C680007074FF00109FFF7A5FFDFF8BCE0DEF832
:101C780004A00346EBB9C4E900EACAF80040CEF86C
:101C8800044028E0DAE900126FF001035B1A4FF014
:101C9800FF3161EB02025B1B62EB0902012B72F15F
:101CA8000001BCBF01230022C0E904324FF0000943
:101CB800D9E7D3E9041CD4E904208A4270EB0C0B61
:101CC80024DA891A5A686CEB0000C3E90410C4E9E5
:101CD800003214605C60FFF76DFF84420ED1134B35
:101CE8001B685BB9B9F1000F02D1FFF76BFF06461D
:101CF800304600F01EFD0021FFF7E4FA88F3118852
:101D0800BFF36F8F28463946BDE8F88F521A60EB4B
:101D18000C009A45C4E90420ADD01B68AAE7002549
:101D28002F46EFE7C80100300C0000306C0300308C
:101D38002DE9F047EFF31185102383F31288BFF3E1
:101D48006F8FDFF8A490DFF8A480C9F80000FFF7D0
:101D580031FF00260027D9F80030D8E900ECD91760
:101D680050B1D0E90442A34271EB020A1CDAE41A2A
:101D780062EB0102C0E9044213EB0E034FF00004CA
:101D88004CEB01012046C8E90031C9F8004000F0D9
:101D9800D0FC2146FFF796FA85F31188BFF36F8FC1
:101DA800BDE8F047FFF7D6BE14EB0E024CEBE47328
:101DB800C0E90467C8E90023FFF70EFF85F311881F
:101DC800BFF36F8F83689847EFF31185102383F370
:101DD8001288BFF36F8FD9F800301B1BC9F8003089
:101DE800FFF7E8FEB7E700BF6C030030C80100301A
:101DF800014800F0CDBA00BFA93510082DE9F04F11
:101E08008DB043680293837815469A07804640F15F
:101E18000D8100240E78002E00F00A81252E0BD0AB
:101E28004B1C03930134029B4146304698470028D7
:101E3800C0F2F6800399EDE74E788B1C252E0393AC
:101E4800F0D00027B946BB46BBF11F0F38D8A6F122
:101E58002003102B0AD8DFE803F02A090930090902
:101E6800092109090928092D09091F00A6F13003CC
:101E7800092B33D92A2E37D11BF0400F55F8043BD4
:101E880040F08280002BA7BF4BF0200B9946C3F18E
:101E980000094BF0280B01E04BF0010B039B13F8F2
:101EA800016B0393002ECFD130E04BF0020B4BF0C7
:101EB800040BF3E74BF0080BF0E74BF0100BEDE7E2
:101EC800BBF17F0F19D8A6F13003092BD2D81BF02C
:101ED800400F03D00A2101FB0737DFE70A2101FB86
:101EE80009394BF0200BD9E72E2E06D11BF0400FF5
:101EF80040F09E804BF0400BD0E76C2E31D02BD8B1
:101F0800682E36D06A2E3CD04C2E3AD0002F46F0A0
:101F18002003B8BF2BF04002A3F16501BCBF1FFA34
:101F280082FB0027022901D9612B2FD1073525F023
:101F38000705DFF8ACA2083507271BF0080F66D0A5
:101F48000AEB070B56465E4563D1A4EB0A0A06EB7B
:101F58000A02A9EB07096FE1742E9FD07A2E9DD053
:101F6800D4E71BF0800F18BF4BF4007B4BF0800BBD
:101F780094E71BF4807F18BF4BF4007B4BF4807B05
:101F88008CE74BF4207B89E71F4687E7A6F16301BE
:101F9800122900F2F080DFE811F013004F00EE0084
:101FA800EE00EE00EE004F00EE00EE00EE00EE0058
:101FB800EE00FE00E900EE00EE001B00EE00AF00B0
:101FC80055F8043B8DF8183001270DF1180AB4E7CD
:101FD80055F804AB834BBAF1000F08BF9A461BF0C3
:101FE800400F14BF39464FF0FF31504600F0F6FB62
:101FF8000746A2E7029B41462020984700280FDBAE
:10200800013EB742F6D34C44A41BB14698E74E466E
:10201800F7E716F8010B029B41469847002892DA29
:1020280098F8023043F0040388F802304FF0FF3488
:1020380020460DB0BDE8F08F1BF0800F34D01BF4A4
:10204800007F2CD0073525F00705AA4669685AF89D
:10205800080B2BF010050029ADB237DA404261EBCE
:10206800410145F480650DF1180B0A235A4600F02A
:10207800C1FBA0EB0B0301936B0662D5019B25F016
:1020880001019F4289B240F3A180002E00F099809F
:1020980015F0100240F09C80BB460D4623E0AA468E
:1020A8005AF8040BC117D4E7AA461BF4807F5AF8E4
:1020B800041B01D10846F5E71BF4007F15BF48B2A1
:1020C80008B241F3C01141F3C031C2E750EA01033D
:1020D800C9D11BF0400FC6D0002FC4D12BF011027C
:1020E80095B2BB46019740F2064115EA01021CBFB2
:1020F8000BF1010B00222CE02BF010021FFA82FBDF
:102108000A231BF0800C49D01BF400711DBF073552
:1021180025F00705AA46AA461ABF5AF8080B6968A7
:102128005AF8040B50EA010545D12BF016051BF0AF
:10213800400FADB242D0002F40D12BF0170295B21C
:10214800019715F0100248D0019B002E42D103F1EF
:10215800010B29075AD4EB0706D5D9456FDD01993C
:10216800A9EB0B035F18CB465B4649E04BF0100B1D
:1021780010237826C5E7782B04D1C6F1780343F0FD
:102188001003BEE7029B4146252098470028FFF62A
:1021980047AF023447E608230026B2E7AA461BF4F5
:1021A80080715AF8040BBDD01BF400711ABFC0B27D
:1021B800614680B2B6E72BF0060295B20DF1180B16
:1021C80054E725F01105ADB2BB468CE70D46B8E7DC
:1021D8003B460D4603F1020BBBE7DDF804B082E78E
:1021E800EB351008E4351008CDE904324146029B6E
:1021F800202098470028FFF613AF049B059A013367
:102208009945F1DCA4EB0B01CC189B460AB3029B61
:102218004146302098470028FFF602AF8EB90134B6
:102228002744019B391B994224DC1D465DBB019A5A
:10223800A9EB0B09224455461446914435E0019F09
:1022480092E7023441463046029B98470028E7DA75
:10225800E6E640F206410D42E2D015F0020F14BF47
:102268002B20202015F4806F04F10104414618BF8B
:102278002D20E9E7029B414630209847002804F1C9
:102288000104CEDACCE606AB013D4146585D029B1F
:1022980098470028CADAC3E6029B4146202098479F
:1022A800002804F10104FFF6BBAEA9EB0403002BE0
:1022B800F2DCBFE570470020704700EBC1004088A2
:1022C80040087047F8B50346FFF7F7FFB0FA80F00B
:1022D800C0F11F0003EB800CCA00DCF81060171D6A
:1022E8000C4606328DB256B9012101FA00F0D968C0
:1022F8000143D960CCF81040DD539D52F8BDF10080
:102308000431585AD85303EBC0009E52C5805D5221
:10231800F4E7043A2DE9F041CC1D114424F00704F8
:1023280021F007010E1BF708B7FA87F2C2F124055E
:10233800AD004FF000080735C2F12002ED08046037
:102348004146A760C4F80C80920004F1100000F028
:102358003DFA6B0043F00103638004EBC5027B1B6D
:102368005900A4F800805180A21924F83550A2F829
:102378000280A35304EBC70329465A8842F001029E
:102388005A802046BDE8F041FFF79CBF0020704707
:102398000FB407B504A951F8040B0191FDF77EFFAE
:1023A80003B05DF804EB04B07047704700F00EBA54
:1023B80000F0FEB901460068FEF714B808B5FEF74C
:1023C80041F8BDE80840FEF761B800210120FEF79A
:1023D80009B86FF08500704761B662B680F311885E
:1023E800BFF36F8F704772B6002383F31188BFF372
:1023F8006F8FBFF34F8F30BF62B6BFF36F8F7047D9
:1024080008B5062201210020FEF766FB00221146CE
:102418000620FEF7B1FA012108460722FEF75CFB09
:10242800002211460720FEF7A7FA08220121022000
:10243800FEF752FB002211460820FEF79DFA0922FA
:1024480001210320FEF748FB002211460920FEF770
:1024580093FA0A2201210420FEF73EFB00221146CE
:102468000A20FEF789FA052108461722FEF734FBF1
:10247800002211461720FEF77FFA282206210A209B
:10248800FEF72AFB002211462820FEF775FA0020E5
:1024980008BD01F01F010120884070474FF0B0428D
:1024A800D2F8C03023EA0003C2F8C03070470128D0
:1024B80006D0123801288CBF6FF0850000207047C5
:1024C8000020704743685B681B690B6000207047F9
:1024D80043685B6800209961704743685B6809043A
:1024E80099610020704710B503699868F8B188426F
:1024F80019D1DC6808689860A14200D1D860002032
:1025080008602AB19A680A60DA68996002B9D960E5
:10251800002010E0814206D108682060D868814216
:10252800EDD1DC60EBE7044600680028F2D1002A10
:10253800E8D16FF0150010BD12F4003CF8B505465F
:102548000C4613461DD0960714D550075DD550226A
:10255800D90611D542F4007203F4C061B1F5806F59
:1025680042D0B1F5C06F19D0B1F5007F18D142F053
:10257800800215E01022EBE79F06EDD542F4806259
:10258800EAE7D60305D5D00605D4C2F34012920275
:10259800E2E73022E0E74FF40072DDE742F4C07270
:1025A80013F440372E6908D0306920FA04F1C907BE
:1025B8005FBF0121A14001433161BCF1000F06D08A
:1025C800180314D5696801234968A3408B616868BA
:1025D80000232146FEF78CFD27B9336923FA04F25C
:1025E800D2070CD40020F8BD42F48072D8E7590312
:1025F800EDD50121A1402846FFF76FFFE7E701224B
:10260800A24023EA02033361ECE76FF08500EAE7B2
:1026180070B50B468968054611B15E680C6801B94A
:1026280070BD8A682A4002D04B68304698471CB172
:10263800236821461C46F2E72346FAE710B54369AA
:1026480004463BB90020E268537843F00103537015
:10265800404210BD98470028F4D00028B8BF404237
:10266800E368FF28A8BFFF201870ECE740B1C368F3
:10267800587810F001001EBF1878B0FA80F04009B1
:102688007047EFF31183102383F31288BFF36F8F22
:10269800FEE708B5FFF7F5FF08B51024EFF311833F
:1026A80084F31288BFF36F8FFFF79DFEF6E7D0E93A
:1026B800003213605A600023C0E90033704708B540
:1026C800FFF7F5FF437B23F0020343730023836086
:1026D80008BD10B5EFF31184102383F31288BFF3FC
:1026E8006F8FFFF717F884F31188BFF36F8F10BD52
:1026F80010B50146EFF31184102383F31288BFF35A
:102708006F8F437B13F0280F0AD183680BB1FFF753
:10271800D6FF4B7B23F004034B730846FEF7FAFF02
:1027280084F31188BFF36F8F10BD01211838FFF7AC
:10273800DFBF08B50246FFF73DFA70B1D0E90431B2
:102748009B1A61EBE272B3F1004F72F1000104DAF7
:10275800002AACBF1846002008BD6FF00040FBE718
:1027680038B50246EFF31185102383F31288BFF3BF
:102778006F8F0368CBB1FFF71DFA04461046FFF7C9
:102788002BFA00224FF000438442C0E9042306D10B
:10279800FFF718FAFFF7CDFF0021FEF793FD0020A1
:1027A80085F31188BFF36F8F38BD6FF01500F7E719
:1027B8000A44914200F1FF3300D1704710B511F877
:1027C800014B03F8014F9142F9D110BD0244034671
:1027D800934200D1704703F8011BF9E710B5024690
:1027E80001448A42134603D01C780132002CF8D1E8
:1027F800181A10BDF0B5C3F137070446FFB203F04D
:102808001F031046082BE6B233D0102B3ED06508C4
:10281800A40844EA817445EAC1752D194FEA91026A
:1028280042EB5102290941EA02716D1842EB12127A
:10283800290A41EA02616D1842EB1222290C41EA89
:1028480002416D1842EB1242AD1842F10002EC0849
:1028580044EA4274D10804EB8402A6EB4205EDB2C7
:10286800092D0CD90134A5F10A0541F10001EDB299
:1028780012E0E40844EA417406F00705C908303557
:1028880054EA010200F8015BBCD1F0BD240944EA16
:10289800017406F00F050909092D84BFED19EDB281
:1028A800EDE700000148006870470000D0010030E3
:1028B800000000004029100809031008000000006B
:1028C80000000000802A100800000000A02A10085C
:1028D80000000000402A10080000000060291008CD
:1028E80000000000C02A100800000000602A10083C
:1028F80000000000202A100800000000002A10082C
:1029080000000000E029100800000000C02910089D
:1029180000000000A029100800000000802910080D
:1029280009241008000000003512100800000000FB
:08293800BD0A100800000000B8
:10294000FD34100800000000B42F100836000030DD
:1029500000000000410F100800000000000000000F
:10296000DF341008000000000000000034000030D8
:1029700000000000310D1008000000000000000001
:102980000A351008D02F1008902F1008380000309A
:1029900060020030B11110080000000000000000CB
:1029A00018351008E42F1008902F10083A00003056
:1029B00074020030B1111008000000000000000097
:1029C00026351008F82F1008902F10083C00003012
:1029D00088020030B1111008000000000000000063
:1029E000343510080C301008902F10083E000030CD
:1029F0009C020030B111100800000000000000002F
:102A00004235100820301008902F10084000003088
:102A1000B0020030B11110080000000000000000FA
:102A20005035100834301008902F10084200003044
:102A3000C4020030B11110080000000000000000C6
:102A40005E35100848301008902F10084400003000
:102A5000D8020030B1111008000000000000000092
:102A60006C3510085C301008902F100846000030BC
:102A7000EC020030B111100800000000000000005E
:102A80007A35100870301008902F10084800003078
:102A900000030030B1111008000000000000000029
:102AA0008835100884301008902F10084A00003034
:102AB00014030030B11110080000000000000000F5
:102AC0009635100898301008902F10084C000030F0
:102AD00028030030B11110080000000000000000C1
:102AE00000000000D323100800000000D3231008CA
:102AF00000000000D323100800000000D3231008BA
:102B000000000000D323100800000000D3231008A9
:102B1000DD341008F90A1008DB341008F90A10082F
:102B2000D9341008F90A1008D7341008F90A100827
:102B3000D5341008F90A100800000000D32310084B
:102B400000000000D323100800000000D323100869
:102B500000000000D323100800000000D323100859
:102B600000000000D323100800000000D323100849
:102B700000000000D323100800000000D323100839
:102B800000000000D323100800000000D323100829
:102B900000000000D3231008D3341008F90A1008ED
:102BA00000000000D323100800000000D323100809
:102BB00000000000D323100800000000D3231008F9
:102BC00000000000D323100800000000D3231008E9
:102BD00000000000D323100800000000D3231008D9
:102BE00000000000D323100800000000D3231008C9
:102BF00000000000D323100800000000D3231008B9
:102C000000000000D323100800000000D3231008A8
:102C100000000000D323100800000000D323100898
:102C2000D1341008F90A100800000000D32310085E
:102C300000000000D323100800000000D323100878
:102C400000000000D323100800000000D323100868
:102C500000000000D323100800000000D323100858
:102C600000000000D323100800000000D323100848
:102C700000000000D323100800000000D323100838
:102C800000000000D323100800000000D323100828
:102C900000000000D323100800000000D323100818
:102CA00000000000D323100800000000D323100808
:102CB00000000000D323100800000000D3231008F8
:102CC00000000000D323100800000000D3231008E8
:102CD00000000000D323100800000000D3231008D8
:102CE00000000000D323100800000000D3231008C8
:102CF00000000000D323100800000000D3231008B8
:102D000000000000D323100800000000D3231008A7
:102D100000000000D323100800000000D323100897
:102D200000000000D323100800000000D323100887
:102D300000000000D323100800000000D323100877
:102D400000000000D323100800000000D323100867
:102D500000000000D323100800000000D323100857
:102D600000000000D323100800000000D323100847
:102D700000000000D323100800000000D323100837
:102D800000000000D323100800000000D323100827
:102D900000000000D323100800000000D323100817
:102DA00000000000D323100800000000D323100807
:102DB00000000000D323100800000000D3231008F7
:102DC00000000000D323100800000000D3231008E7
:102DD00000000000D323100800000000D3231008D7
:102DE00000000000D323100800000000D3231008C7
:102DF00000000000D323100800000000D3231008B7
:102E000000000000D323100800000000D3231008A6
:102E100000000000D323100800000000D323100896
:102E200000000000D323100800000000D323100886
:102E300000000000D323100800000000D323100876
:102E400000000000D323100800000000D323100866
:102E500000000000D323100800000000D323100856
:102E600000000000D323100800000000D323100846
:102E700000000000D323100800000000D323100836
:102E800000000000D323100800000000D323100826
:102E900000000000D323100800000000D323100816
:102EA00000000000D323100800000000D323100806
:102EB00000000000D323100800000000D3231008F6
:102EC00000000000D323100800000000D3231008E6
:102ED00000000000D323100800000000D3231008D6
:102EE00000000000D323100800000000D3231008C6
:102EF00000000000D323100800000000D3231008B6
:102F000000000000D323100800000000D3231008A5
:102F100000000000D323100800000000D323100895
:102F200000000000D323100800000000D323100885
:102F300000000000D323100800000000D323100875
:102F400000000000D323100800000000D323100865
:102F500000000000D323100800000000D323100855
:102F600000000000D323100800000000D323100845
:102F700000000000D323100800000000D323100835
:102F800000000000D323100800000000D323100825
:102F900041251008CD241008D1101008D92410089C
:102FA000E3241008AD101008C90F1008EF24100812
:042FB000000000001D
:102FB400F10E1008AD0E100800000000F50D100809
:0C2FC4000000000000000000610F100879
:102FD000FFFF0000002802580A000000E000000087
:102FE00000040000FFFF0000002402580900000058
:102FF000E000000000020000FFFF00000020025877
:1030000008000000E000000000010000FFFF0000D9
:10301000001C025807000000E000000080000000D3
:10302000FFFF00000018025806000000E00000004A
:1030300040000000FFFF00000014025805000000DF
:10304000E000000020000000FFFF00000010025818
:1030500004000000E000000010000000FFFF00007E
:10306000000C025803000000E0000000080000000F
:10307000FFFF00000008025802000000E00000000E
:1030800004000000FFFF00000004025801000000DF
:10309000E000000002000000FFFF000000000258F6
:1030A00000000000E000000001000000B828100847
:1030B000B8281008302910083829100840291008AD
:1030C0004029100872302F61313A202030782530A5
:1030D0003878202072312F61323A20203078253024
:1030E0003878202072322F61333A20203078253012
:1030F00038780A0072332F61343A20203078253036
:103100003878207231322F69703A2020307825309B
:103110003878207231342F6C723A20203078253084
:1031200038780A0020787073723A20203078253081
:1031300038780A004661756C74696E6720696E7331
:103140007472756374696F6E206164647265737301
:1031500020287231352F7063293A20307825303895
:10316000780A00556E68616E646C6564204952513E
:103170006E3A2025640A002A2A2A2A2A2055534119
:103180004745204641554C54202A2A2A2A2A0A001B
:1031900020204469766973696F6E206279207A65B0
:1031A000726F0A002020556E616C69676E6564203D
:1031B0006D656D6F7279206163636573730A0020BA
:1031C000204E6F20636F70726F636573736F722030
:1031D000696E737472756374696F6E730A00202070
:1031E000496C6C6567616C206C6F6164206F662050
:1031F0004558435F52455455524E20696E746F20B6
:1032000050430A002020496C6C6567616C2075731F
:1032100065206F662074686520455053520A00206F
:1032200020417474656D707420746F2065786563D7
:1032300075746520756E646566696E656420696E77
:10324000737472756374696F6E0A002A2A2A2A2AB7
:1032500020425553204641554C54202A2A2A2A2AD6
:103260000A002020537461636B696E672065727277
:103270006F720A002020556E737461636B696E670C
:10328000206572726F720A00202050726563697344
:1032900065206461746120627573206572726F725B
:1032A0000A002020424641522041646472657373D3
:1032B0003A20307825780A002020496D70726563C5
:1032C0006973652064617461206275732065727230
:1032D0006F720A002020496E737472756374696F8F
:1032E0006E20627573206572726F720A002020462C
:1032F0006C6F6174696E672D706F696E74206C619C
:103300007A79207374617465207072657365727662
:103310006174696F6E206572726F720A002A2A2AC0
:103320002A2A204D5055204641554C54202A2A2AFD
:103330002A2A0A002020537461636B696E67206536
:1033400072726F722028636F6E7465787420617278
:103350006561206D69676874206265206E6F7420F6
:1033600076616C6964290A002020446174612041FF
:1033700063636573732056696F6C6174696F6E0A5D
:103380000020204D4D4641522041646472657373A4
:103390003A20307825780A002020496E73747275BF
:1033A0006374696F6E204163636573732056696F40
:1033B0006C6174696F6E0A0052657365727665643C
:1033C00020457863657074696F6E202800537075AE
:1033D00072696F757320696E74657272757074208E
:1033E000284952512000535053454C20696E207497
:1033F0006872656164206D6F646520646F65732019
:103400006E6F7420696E64696361746520505350F7
:103410000A002A2A2A2A2A20484152442046415595
:103420004C54202A2A2A2A2A0A0020204275732076
:103430006661756C74206F6E20766563746F7220A0
:103440007461626C6520726561640A0020204465C5
:10345000627567206576656E740A00202046617586
:103460006C7420657363616C6174696F6E2028737E
:1034700065652062656C6F77290A00415243485F99
:1034800045584345505420776974682072656173CC
:103490006F6E2025780A0A002A2A2A2A2A204465E3
:1034A000627567206D6F6E69746F722065786365F1
:1034B0007074696F6E202A2A2A2A2A0A002A2A2A68
:1034C0002A2A20257320256429202A2A2A2A2A0A22
:1034D000000A06050504010301020101010001695A
:1034E0006E746572727570742D636F6E74726F6C2A
:1034F0006C65724035383030303030300072636384
:10350000403538303234343030006770696F4035C0
:1035100038303232383030006770696F40353830BB
:103520003232343030006770696F403538303232B3
:10353000303030006770696F403538303231433099
:1035400030006770696F40353830323138303000C4
:103550006770696F40353830323134303000677011
:10356000696F403538303231303030006770696F04
:10357000403538303230433030006770696F403545
:1035800038303230383030006770696F403538304D
:103590003230343030006770696F40353830323047
:1035A000303030006D61696E002A2A2A20426F6F28
:1035B00074696E67205A6570687972204F53206273
:1035C00075696C642076342E322E302D34303436CA
:1035D0002D67396466616335613636653261202A4C
:1035E0002A2A0A00286E756C6C29002A666C6F61A5
:0435F000742A000039
:1035F400952310080090D003C80000000C00003090
:103604000C000030FF00FF00FF00FF00FF00FF0080
:10361400FF00FF00FF00FF00FF00FF00FF00FF00AE
:04362400FF00FF00A4
:103628000000000000000000000000000000000092
:0C36380000000000000000000000000086
:0436440015E015E098
:040000050810088D4A
:00000001FF
